:020000040000FA
:1000000008470020250200002D0200002F020000FA
:100010003102000033020000350200000000000041
:100020000000000000000000000000003702000097
:1000300039020000000000003B020000CD2D01004D
:100040003F0200003F0200003F0200003F020000AC
:100050003F0200003F0200003F0200003F0200009C
:100060003F0200003F0200003F0200003F0200008C
:10007000512F01003F0200003F0200003F0200003C
:10008000592F00009D2F0000F12F0000313000009B
:100090003F020000853000003F0200003F020000E8
:1000A000750400003F020000F92E01003F0200002D
:1000B0003F0200003F0200003F0200003F0200003C
:1000C0003F0200003F0200003F0200003F0200002C
:1000D0003F02000001C900003F0200002DC90000DE
:1000E00059C90000000000000000000000000000EE
:1000F0000000000000000000000000000000000000
:1001000000000000000000000000000000000000EF
:1001100000000000000000000000000000000000DF
:1001200000000000000000000000000000000000CF
:1001300000000000000000000000000000000000BF
:100140000000000000F002F800F05CF80AA090E85F
:10015000000C82448344AAF10107DA4501D100F082
:1001600051F8AFF2090EBAE80F0013F0010F18BFF3
:10017000FB1A43F00103184708A5010028A5010058
:100180000A444FF0000C10F8013B13F0070408BFBD
:1001900010F8014B1D1108BF10F8015B641E05D05B
:1001A00010F8016B641E01F8016BF9D113F0080F10
:1001B0001EBF10F8014BAD1C0C1B09D16D1E58BFA2
:1001C00001F801CBFAD505E014F8016B01F8016BD9
:1001D0006D1EF9D59142D6D370470000002300244C
:1001E00000250026103A28BF78C1FBD8520728BF47
:1001F00030C148BF0B6070471FB518F0E2F91FBD52
:1002000010B510BD00F002F91146FFF7F5FF15F02B
:100210009FFE00F020F903B4FFF7F2FF03BC00F0EB
:1002200021F900000948804709480047FEE7FEE73A
:10023000FEE7FEE7FEE7FEE7FEE7FEE7FEE7FEE796
:1002400004480549034A054B70470000DD2D0100B5
:10025000450100000845002008470020084500200F
:10026000032A40F2308010F0030C00F0158011F8E2
:10027000013BBCF1020F624498BF11F801CB00F8BA
:10028000013B38BF11F8013BA2F1040298BF00F80E
:1002900001CB38BF00F8013B11F0030300F02580CB
:1002A000083AC0F0088051F8043B083A51F804CBF2
:1002B000A0E80810F5E7121D5CBF51F8043B40F8B8
:1002C000043BAFF30080D20724BF11F8013B11F8C3
:1002D00001CB48BF11F8012B24BF00F8013B00F807
:1002E00001CB48BF00F8012B704710B5203AC0F091
:1002F0000B80B1E81850203AA0E81850B1E8185027
:10030000A0E81850BFF4F5AF5FEA027C24BFB1E863
:100310001850A0E8185044BF18C918C0BDE81040D4
:100320005FEA827C24BF51F8043B40F8043B08BFDD
:100330007047D20728BF31F8023B48BF11F8012BA4
:1003400028BF20F8023B48BF00F8012B70474FF050
:1003500000020429C0F0128010F0030C00F01B8092
:10036000CCF1040CBCF1020F18BF00F8012BA8BFA0
:1003700020F8022BA1EB0C0100F00DB85FEAC17C64
:1003800024BF00F8012B00F8012B48BF00F8012B17
:1003900070474FF0000200B5134694469646203948
:1003A00022BFA0E80C50A0E80C50B1F12001BFF42E
:1003B000F7AF090728BFA0E80C5048BF0CC05DF894
:1003C00004EB890028BF40F8042B08BF704748BFE2
:1003D00020F8022B11F0804F18BF00F8012B704756
:1003E00070477047704710B500F008F8006810BDFE
:1003F00010B5044600F002F8046010BD00487047D4
:10040000A844002000487047A84400207546FFF724
:10041000F9FFAE4605006946534620F007008546C1
:1004200018B020B5FFF70CFFBDE820404FF00006E4
:100430004FF000074FF000084FF0000B21F00701CC
:10044000AC46ACE8C009ACE8C009ACE8C009ACE80F
:10045000C0098D4670470446AFF300802046FFF781
:10046000DAFE000001491820ABBEFEE726000200BC
:100470007047000070B50E490968886E80470446D1
:100480000D460B480068C26E20462946904701235E
:1004900004EA0300002148404940084306D00448CC
:1004A0000068416C012088470249088070BD000047
:1004B00004080002A006002010B51E49096808685B
:1004C00080471C48006800234FF4400219468468A6
:1004D000D010A04717482030006803221021C369BC
:1004E00005209847134800680121026A0846904792
:1004F00010480068002301221946046B1046A047EB
:100500000C480068416F002088470A490968486A1A
:10051000804708490968086F804706480068C26D2F
:100520000120002190470348283000688169282075
:10053000884710BD040800023B4A02EB811292ED8D
:10054000000A80ED020A384A02EB811292ED010A9C
:1005500080ED030A344A02EB811292ED020ABCEEEE
:10056000C00A10EE102A02822F4A02EB811292ED8D
:10057000030A80ED0E0A2C4A02EB811292ED040A66
:1005800080ED0F0A284A02EB811292ED050A80EDF8
:10059000100A254A02EB811292ED060A80ED170A35
:1005A000214A02EB811292ED070A80ED180A1E4AD9
:1005B00002EB811292ED080A80ED190A1A4A02EB49
:1005C000811292ED090A80ED1A0A174A02EB811294
:1005D00092ED0A0ABCEEC00A10EE102AA0F87C20A8
:1005E000114A02EB811292ED0B0A80ED200A0E4AAD
:1005F00002EB811292ED0C0A80ED1B0A0A4A02EB13
:10060000811292ED0D0A80ED1C0A074A02EB81125D
:1006100092ED0E0A80ED1D0A034A02EB811292ED63
:100620000F0A80ED110A70473CA4010070B52A48FA
:1006300000680221026807209047274800680421CB
:100640000269072090470221072004F005FC0421DD
:10065000072004F091FB012804D147F230501F49D4
:1006600008601FE000250A221D494FF4C86000F011
:100670004AF8002009E01B49095C194A125C9142C2
:1006800001D0691CCDB2411C88B20A28F3DB002DD1
:1006900004DD44F250601149086002E012480F493D
:1006A000086000BF40F2FF7000F03EF80446552C91
:1006B00001D1002070BD552140F2FF7000F07FF89D
:1006C00040F2FF7000F030F80446552C01D10020B4
:1006D000F0E70120EEE70000240800021C080020DB
:1006E0002C3300202808002000D6830010B505F028
:1006F00074FC03E04FF42F7014F0E5FFFFF796FF52
:100700000028F7D110BD70B506460C46154608E026
:100710003046721C96B200F007F804F8010B681E10
:1007200085B2002DF4D170BD70B50446002611F0DD
:10073000F0F92546E11704EB11610912A02202EB42
:100740004101C8B211F0BDF911F013FAE11704EB41
:1007500011610912A4EB0121C8B211F0B2F911F034
:1007600008FA11F0D6F9A12011F0ABF911F001FA55
:10077000002011F07EF9064611F0E3F9304670BD15
:1007800038B504460D46A8B204226946FFF7BBFF00
:100790009DED000A84ED000A38BD70B505460C4693
:1007A000164606E02178284600F009F8681C85B254
:1007B000641C301EA6F101018EB2F3D170BD70B57C
:1007C00004460E4611F0A5F92546E11704EB116128
:1007D0000912A02202EB4101C8B211F072F911F026
:1007E000C8F9E11704EB11610912A4EB0121C8B2A9
:1007F00011F067F911F0BDF9304611F062F911F00E
:10080000B8F911F09EF90A2014F05DFF70BD38B5FB
:1008100004460D4620788DF800002088000A8DF8E7
:1008200001002068000C8DF802002068000E8DF891
:100830000300A8B204226946FFF7AFFF38BD0000ED
:1008400030B587B0002400200490059006907E48C3
:100850000078052873DC002039E07C4991ED000A1E
:10086000F3EE040AB4EEE00AF1EE10FA2AD8784961
:1008700091F86410012925D100241BE074495831F6
:1008800001EB840191ED000ADFED720A60EE200AAF
:100890009FED711A80EE810A04A901EB8401D1ED6C
:1008A000000A30EE200A04A901EB840181ED000A60
:1008B000611C8CB2032CE1DB411C88B20021644A2C
:1008C00082F864100121654A5F4B1B78D154B0F562
:1008D0007A7FC2DBDDED040A00EE100AB8EE400AB2
:1008E00080EE801A5849097801EB41015C4A02EB1D
:1008F000810181ED001ADDED050A00EE100AB8EE67
:10090000400A80EE801A5049097801EB410102EB60
:10091000810181ED011ADDED060A00EE100AB8EE44
:10092000400A80EE801A4849097801EB410102EB48
:10093000810181ED021A0621434A117000BF474828
:100940000078464949780840444989780840434935
:10095000C978084041490979084040494979084027
:1009600000286FD03F48007800286BD101203D4916
:10097000087000203C4908703C4A3D49384801F065
:1009800093F83C490870002504E00020334948559D
:10099000681C85B2062DF8DB36480078012839D16D
:1009A0003348D0ED021AB0EE611AD0ED011AF0EE24
:1009B000610AD0ED001AB0EE610A2F49022013F04F
:1009C00016FC2A48D0ED021AB0EE611AD0ED011AD9
:1009D000F0EE610AD0ED001AB0EE610A264905205A
:1009E00013F005FC0CF0B8F8002024490880102111
:1009F0000B220346B6EE000ACDE9002102904FF427
:100A00007A7240F6B8311E4800F04EFC01201D49B4
:100A1000487213E000201949088010210B22034678
:100A2000B6EE000ACDE900210290C82241F28831D9
:100A3000134800F039FC002013490880012007B05A
:100A400030BDFFE70020FAE7F9000020D0090020C0
:100A50000C2600200AE81C4100008045FB00002015
:100A6000E00B002001010020FA000020EC00002033
:100A7000BC0B0020F80000209C2F00202C00002040
:100A80007C0B0020663F00206C01002010B52DED8E
:100A9000028B84B00024FE48008840F24C4188421A
:100AA00025DCFC48B0F9000017F0BDF941EC180B4B
:100AB0009FEDF90B53EC102B17F01AFB17D8F848E1
:100AC000B0F9000017F0AFF941EC180B9FEDF50BF2
:100AD00053EC102B17F0D2F909D8F448B0F9000004
:100AE0000F2804DBF2480088401CF1490880E848E0
:100AF000008840F24C41884225DCE648B0F900000D
:100B000017F091F941EC180B9FEDE30B53EC102B10
:100B100017F0EEFA17D8E248B0F9000017F083F9A1
:100B200041EC180B9FEDDF0B53EC102B17F0A6F9DF
:100B300009D8DE48B0F900000F2804DBDC48008843
:100B4000B0F5167F03DADB480078022852D1DA4884
:100B5000008800284ED10120D8490880D849087063
:100B60000020D8490870012010210B220023B6EE86
:100B7000000ACDE90021029064224FF47A71D24834
:100B800000F092FB0620D14908700020D04908707F
:100B9000C749088000241DE00020CE4908559FED7C
:100BA000CE0A04EB4400CD4901EB800080ED000A41
:100BB0009FEDC90A04EB440001EB800080ED010ABF
:100BC0009FEDC50A04EB440001EB800080ED020AB2
:100BD000601C84B2062CDFDB0A20C149088001209A
:100BE00010F0D4FB012010F0F9FB0020BD49088073
:100BF000B0490870B248007801287DD1A448008827
:100C000040F24C41884213DCA248B0F9000017F0D2
:100C10000AF941EC180B9FEDB40B53EC102B17F0B5
:100C20002DF905D89E48008810B9A048008818B151
:100C3000AF480078012817D1AE480088401CAD4964
:100C4000088008460088142803DAA948007801289B
:100C500006D100209D490870A7490880A74908804F
:100C60000020A349087058E18948008840F24C41AF
:100C7000884213DC8748008880B98948B0F90000B1
:100C800017F0D1F841EC180B9FED9D0B53EC102B96
:100C900017F02EFA02D88548008818B194480078D9
:100CA000022818D193480088401C924908800846C1
:100CB0000088142803DA8E480078022807D1012022
:100CC0008249087000208C4908808C4908800020E7
:100CD0008749087021E16E48008840F24C41884203
:100CE00015DC6C48008890B96D48B0F9000017F029
:100CF0009AF841EC180B00E016E19FED6A0B53ECFB
:100D0000102B17F0BBF802D86848008818B1784853
:100D10000078032818D177480088401C754908805E
:100D200008460088142803DA71480078032807D1A0
:100D300002206649087000206F4908806F490880CA
:100D400000206B490870E8E05148008840F24C41AF
:100D5000884213DC4F48008880B95148008868B940
:100D60005248B0F9000017F05EF841EC180B9FED07
:100D7000640B53EC102B17F0BBF903D95C480078D7
:100D8000042818D15B480088401C5A49088008464E
:100D90000088142803DA56480078042807D1032075
:100DA0004A490870002054490880544908800020AE
:100DB0004F490870B1E03648008840F24C41884203
:100DC00013DC3448008880B93548008868B9374852
:100DD000B0F9000017F027F841EC180B9FED310B2C
:100DE00053EC102B17F04AF803D941480078052836
:100DF00018D140480088401C3E49088008460088B9
:100E0000142803DA3A480078052807D104202F492E
:100E1000087000203849088038490880002034498B
:100E200008707AE01A48008840F24C41884213DC8E
:100E30001848B0F9000016F0F6FF41EC180B9FEDD2
:100E4000160B53EC102B17F053F905D214480088F9
:100E500010B91648008818B125480078062855D1E1
:100E600024480088401C234908800846008814282C
:100E700003DA1F480078062807D1052013490870B7
:100E800000201D4908801D490880002018493BE0CA
:100E90009C010020A20100200000000000C0624070
:100EA000A001002000000000008036C09E0100204C
:100EB00002010020280B0020A80100202C000020A7
:100EC000FA000020F80000207C0B0020F900002030
:100ED00001010020FB00002000000000E00B0020CA
:100EE0006C010020B60100200000000000C062C0BC
:100EF000290B002004010020B0010020B2010020D5
:100F00000000000000803640087006E008490888AC
:100F100000EBD0714910064A118005480088C828A6
:100F200002DB00200249088004B0BDEC028B10BD3A
:100F30000401002010B52DED048B0446B0EE408A6C
:100F4000F0EE608AB0EE419A3048C0ED018A80ED43
:100F5000558A2F4890ED000A2E48D0ED000A30EE59
:100F6000600A2A4880ED560A2B4890ED000A2B486B
:100F7000D0ED000A30EE600A244880ED020A00F548
:100F8000A8700AF0A5FC21480AF0A2FC1F4890EDC9
:100F90000C0A80ED2B0A90ED600A80ED7F0AF4B117
:100FA000012C2FD190EDA90AB5EEC00AF1EE10FA8E
:100FB00005D11B4890ED000A144880EDA90A184895
:100FC00090ED000A114880EDAA0A00F528700BF098
:100FD000F3F80E4890EDB40A80EDD30A12E00B4806
:100FE00080EDA99A0E4890ED000A084880EDAA0A03
:100FF00000F528700BF0E0F8044890EDB40A80ED9D
:10100000D30A00BF00BFBDEC048B10BDB0100020A0
:10101000AC0900204C010020A80900204801002054
:10102000B009002010B50948D0ED061AB0EE611ADB
:10103000D0ED051AF0EE610AD0ED041AB0EE610AA7
:101040000120FFF777FF04F027FD10BD5039002085
:1010500010B50446112C7CD2DFE804F0090C2034D2
:101060003E52535455565758595A5B5C840008F009
:101070007BFDB2E000F074FF5948B0F9040000EEC7
:10108000100AB8EEC00A574880ED060ADFED560A8E
:101090009FED560A012003F007FC9EE012F0CCFB06
:1010A0004F48B0F9040000EE100AB8EEC00A4D48EF
:1010B00080ED060ADFED4C0A9FED4B0A002003F09D
:1010C000F3FB8AE011F048F9DFED470A9FED470A8C
:1010D000012003F0E9FB80E003F0A2FD4048B0F9F5
:1010E000040000EE100AB8EEC00A3E4880ED060A81
:1010F000DFED3D0A9FED3C0A002003F0D5FB6CE0DC
:1011000000BF00BF00BF00BF00BF00BF00BF00BFE7
:1011100000BF00BF3248B0F9000000EE100AB8EE80
:10112000C00A304880ED040A2D48B0F9020000EEF4
:10113000100AB8EEC00A2B4880ED050A2848B0F91D
:10114000040000EE100AB8EEC00A264880ED060A38
:1011500000E01CE0DFED240A9FED230A002003F0ED
:10116000A3FB3AE0002009F067FE1D48B0F9040037
:1011700000EE100AB8EEC00A1A4880ED060ADFED4C
:101180001C0A9FED190A022003F08EFB25E014488B
:10119000B0F9000000EE100AB8EEC00A114880ED68
:1011A000040A0F48B0F9020000EE100AB8EEC00AB7
:1011B0000C4880ED050A0A48B0F9040000EE100A58
:1011C000B8EEC00A074880ED060ADFED070A9FED7A
:1011D000060A002003F068FB00BF00BF10BD00003E
:1011E000B01E002050390020000000000000C8425E
:1011F000000048C210B50948006840210268052077
:10120000904706480068102102680B209047034869
:101210000068202102680B20904710BD24080002BE
:1012200010B504462088012803DB2088401E20805A
:1012300005E0218A1B4BE0681B685A6890472088AC
:1012400010B9A07C01282CD12089401C2081208944
:1012500000EB80006188884201DB002020816088EB
:1012600000EE100AB8EE400AD4ED010A60EE200A42
:10127000208900EB800000EE100AB8EEC00AF4EE00
:10128000C00AF1EE10FA06DB218A064BE0681B6803
:101290009A68904705E0218A024BE0681B685A680B
:1012A000904710BD24080002F0B505AC70CC0527AE
:1012B000B1FBF7F70780428080ED010A0381C4602B
:1012C00005828674F0BD000010B504464CB97E4816
:1012D000FFF7A6FF7D48FFF7A3FF7D48FFF7A0FFBC
:1012E000F1E0012C7ED17B48007888B97748FFF780
:1012F00097FF754B198AD868774B1B685A689047D7
:10130000734B198AD868744B1B685A689047DAE0A7
:1013100070480078012811D16C48FFF781FF6A4BB3
:10132000198AD8686C4B1B685A689047684B198AB1
:10133000D868694B1B685A689047C4E065480078D4
:10134000022811D16148FFF76BFF5F4B198AD868FB
:10135000614B1B685A6890475D4B198AD8685E4B91
:101360001B685A689047AEE05A480078032811D1AC
:101370005648FFF755FF544B198AD868564B1B68DF
:101380005A689047524B198AD868534B1B685A6861
:10139000904798E04F480078042811D14B48FFF758
:1013A0003FFF494B198AD8684B4B1B685A689047D6
:1013B000474B198AD868484B1B685A68904782E0A7
:1013C00044480078052813D14048FFF729FF3E4BD9
:1013D000198AD868404B1B685A6890473C4B198A59
:1013E000D86800E00EE03C4B1B685A6890476AE002
:1013F0003548FFF715FF3548FFF712FF3448FFF770
:101400000FFF60E0022C4AD13448007888B92F4899
:10141000FFF706FF2C4B198AD8682F4B1B685A68B8
:1014200090472B4B198AD8682B4B1B685A689047FA
:1014300049E02A480078012811D12448FFF7F0FE3E
:10144000214B198AD868244B1B685A689047204B57
:10145000198AD868204B1B685A68904733E01F48A8
:101460000078022811D11948FFF7DAFE164B198AC5
:10147000D868194B1B685A689047154B198AD86869
:10148000154B1B685A6890471DE00F48FFF7C8FED0
:101490000E48FFF7C5FE0E48FFF7C2FE13E0032C0F
:1014A00011D10D48006840214268052090470A4844
:1014B0000068102142680B209047074800682021EF
:1014C00042680B20904710BD680B00207C0B002069
:1014D000900B0020F90000202408000218010020D1
:1014E00010B52748DFED270A9FED270A11F01CFBF6
:1014F0002648DFED270A9FED240A11F015FB254849
:10150000DFED250A9FED200A11F00EFB2348F3EED4
:101510000E0A9FED1D0A11F007FB2148F3EE040AA5
:101520009FED190A11F000FB1E48F2EE0E0A9FED26
:10153000160A11F0F9FA1C48F2EE040A9FED120A9D
:1015400011F0F2FA1948F1EE040A9FED0F0A11F0BA
:10155000EBFA1748F0EE000A9FED0B0A11F0E4FADF
:101560001448F2EE040A9FED140A11F0DDFA134854
:10157000DFED070A9FED040A11F0D6FA10BD000056
:10158000880D00200000A0420000C843A00D0020EC
:1015900000007042B80D002000004C42D00D002029
:1015A000E80D0020000E0020180E0020300E002054
:1015B000480E0020380F002000004842500F002045
:1015C00046F65A11064A116005495031096801432F
:1015D000034A503211600121024A11707047000025
:1015E000000401400080204270B507480068C0F345
:1015F00002240548006800F0E06005012946204605
:1016000012F0A0FE70BD000008040140F0B52DED01
:10161000028B83B001AB02AA0021032011F0AEFBC4
:1016200012F0FEFE0646029820B9304603B0BDEC2B
:10163000028BF0BD27480068C0F3090404F4007071
:1016400010B144F47E4004B20CB93046EEE72248B3
:1016500086420ED12148007828B1019890ED0F8A7A
:101660000198456A13E0019890ED078A0198456852
:101670000DE01A48007828B1019890ED0E8A019883
:10168000056A04E0019890ED068A0198056800EE6D
:10169000104AB8EEC00A68EE000AC5F5407000EEC8
:1016A000100AB8EEC01AB7EE000A08EE010A80EE82
:1016B000801AB7EE000A70EE410A00EE106AB8EE2A
:1016C000400A80EE201ABCEEC10A10EE107A3846AD
:1016D000ACE7000004040140006CDC02D88020422A
:1016E00070B50748006800F007040548006800F47A
:1016F000E02005032946204612F024FE70BD0000BC
:101700000804014070B506480068C0F3021504489B
:10171000006800F0E0442146284612F013FE70BD38
:1017200008040140024A1160024A1060704700003C
:10173000000000200400002010B5044600212046CF
:1017400000F002F810BD00002DE9F04105460C46FE
:1017500046F65A102749086011F008FB00F001080E
:10176000012011F0F3FA12F0B1FE06460CB101208F
:1017700000E00020074601201F4908701D480C307A
:10178000006820F4E00030431A490C31086025B1AC
:10179000012019492431087003E000201649243142
:1017A0000870012014492031087007E01FB1601E45
:1017B000040000D106E001201049087010480078AC
:1017C0000028F3D100BF3DB91EB101200A490870BD
:1017D00002E000200849087001200A4908704046CC
:1017E00011F0BCFA1FB114B90020BDE8F08101204E
:1017F000FBE7000000040140C0812042048A20422F
:10180000048920420080204270B503460C461546EC
:1018100000204DE0461C31B246E000EB400604EBF0
:10182000C60606EB8106D6ED000A00EB400604EB87
:10183000C60606EB800696ED001A80EE810AB5EE2C
:10184000C00AF1EE10FA2DD003EB8106D6ED000AA6
:1018500003EB800696ED001A40EE410A03EB810689
:10186000C6ED000A0A461BE002EB420604EBC60680
:1018700006EB8106D6ED000A02EB420604EBC60633
:1018800006EB800696ED001A40EE410A02EB420696
:1018900004EBC60606EB8106C6ED000A561C32B202
:1018A000062AE1DB4E1C31B20629B6DB461C30B2FB
:1018B0000628AFDB052045E000EB400604EBC6063A
:1018C00006EB8006D6ED000A03EB800696ED001AC3
:1018D000C1EE201A03EB8006C6ED001AF7EE000AEF
:1018E00000EB400604EBC60606EB8006C6ED000AD8
:1018F000002123E000EB400604EBC60606EB810660
:10190000D6ED000AB0EE600A03EB8106D6ED000AC0
:1019100003EB800696ED001A40EE410A03EB8106C8
:10192000C6ED000ADFED100A00EB400604EBC60628
:1019300006EB8106C6ED000A4E1C31B28142D9DBAE
:10194000461E30B20028B7DA002009E003EB80061B
:10195000D6ED000A05EB8006C6ED000A461C30B243
:101960000628F3DB70BD00000000000010B5024641
:101970000B46002017E09FED0D0A02EB800484ED7A
:10198000000A00210BE09FED090A00EB400403EB85
:10199000C40404EB810484ED000A4C1C21B2062926
:1019A000F1DB441C20B20628E5DB10BD000000007E
:1019B000F0B586B004460D46F7EE001AB0EE611A97
:1019C000002035E0C61C02EB8606D6ED000A03EBCC
:1019D0008006D6ED001A02EB800696ED002A31EE65
:1019E000C20A60EEA01A21EE802AF0EE411A42EE01
:1019F000401AB0EE611AF0EE001A60EEA11A61EE24
:101A0000A01A61EE801A6E4606EB8006C6ED001A3B
:101A1000F8EE001A60EEA11A61EE801A61EE801AEB
:101A2000C61C6F4607EB8606C6ED001A461C30B290
:101A30000328C7DB002032E004EB8006D6ED001A55
:101A40006E4606EB800696ED002A42EE011A04EB84
:101A50008006C6ED001A00211DE000EB400605EBF4
:101A6000C60606EB8106D6ED001A6E4606EB80062A
:101A700096ED002A6E4606EB8106D6ED002A42EE70
:101A8000221A00EB400605EBC60606EB8106C6ED02
:101A9000001A4E1C31B20629DFDB461C30B2062884
:101AA000CADB06B0F0BD00002DE9F0432DED028B3E
:101AB000B9B007460E4614464FF000089FED9F0A46
:101AC000B0EE408A9FED9E0AF0EE408A00203690EC
:101AD00037903890182130A8FEF75BFC18212AA80F
:101AE000FEF757FC182124A8FEF753FC9021684606
:101AF000FEF74FFC4FF001099FED920A8DED320A7F
:101B00008DED310A8DED300A9FED8F0A8DED350A8E
:101B10008DED340A8DED330A7FE008F101000FFAF4
:101B200080F8694624A8FFF721FF00251FE005EB98
:101B3000450007EB800090ED000A8DED360A05EBBD
:101B4000450007EB800090ED010A8DED370A05EBAB
:101B5000450007EB800090ED020A8DED380A36ABA8
:101B600030AA694624A8FFF723FF681C05B2062D9A
:101B7000DDDB2AAA694624A8FFF746FE9DED2D0A63
:101B800020EE000ADDED330A20EEA01AC0EE010AB5
:101B90009DED2A0A20EE000A30EE000A9DED2B1A78
:101BA000DDED2B1A01EE210A9DED2C1ADDED2C1A2C
:101BB00001EE210A30EE800ADDED2E0A60EEA00A69
:101BC0009DED341A21EE011AC0EE811A70EE210A41
:101BD0009DED2F0A20EE000A9DED351A21EE011A27
:101BE000C0EE011A30EEA10AF0EE408A002512E0A4
:101BF00030A800EB850090ED000A2AA800EB8500D4
:101C0000D0ED000A30EE600A30A800EB850080EDD0
:101C1000000A681C05B2062DEADBB8F1140F05DADC
:101C2000F4EEC88AF1EE10FA3FF777AF9DED330A74
:101C3000DFED460A20EE200A84ED000A9DED340A0D
:101C4000DFED420A20EE200A84ED010A9DED350AFF
:101C5000DFED3E0A20EE200A84ED020A9DED300AF7
:101C6000D4ED000A20EE200A86ED000A9DED310A2F
:101C7000D4ED010A20EE200A86ED010A9DED320A1C
:101C8000D4ED020A20EE200A86ED020A94ED000A45
:101C9000F7EE000A30EE600AB0EEC00AF6EE000A77
:101CA000B4EEE00AF1EE10FA1DDC94ED010AF7EE55
:101CB000000A30EE600AB0EEC00AF6EE000AB4EE9A
:101CC000E00AF1EE10FA0EDC94ED020AF7EE000ADB
:101CD00030EE600AB0EEC00AF6EE000AB4EEE00A9A
:101CE000F1EE10FA01DD4FF0000996ED000AB0EEBA
:101CF000C00AF1EE040AB4EEE00AF1EE10FA15DCC7
:101D000096ED010AB0EEC00AF1EE040AB4EEE00A64
:101D1000F1EE10FA0ADC96ED020AB0EEC00AF1EE1E
:101D2000040AB4EEE00AF1EE10FA01DD4FF000090A
:101D3000484639B0BDEC028BBDE8F0835F70893056
:101D40000000C842000000007FD6D03D0AE81C41D8
:101D500010B5FEF79BFE03F083FF06F079FB00F061
:101D6000BDFF10BD002009490978012901D140F0CB
:101D7000010007490978012901D140F00200054915
:101D80000978012901D140F0040070476E0100205C
:101D9000FA0000201001002010B50146002001EBE0
:101DA000C1026E4B13F8222001EBC1036B4C04EB14
:101DB00083035B781A4001EBC10304EB83039B7838
:101DC0001A4001EBC10304EB8303DB781A4001EBFB
:101DD000C10304EB83031B791A4001EBC10304EB3D
:101DE00083035B791A4001EBC10304EB83039B7906
:101DF0001A4001EBC10304EB8303DB791A4001EBCA
:101E0000C10304EB83031B7A1A4001EBC10304EB0B
:101E100083035B7A1A4001EBC10304EB83039B7AD3
:101E20001A4001EBC10304EB8303DB7A1A4001EB98
:101E3000C10304EB83031B7B1A4001EBC10304EBDA
:101E400083035B7B1A4001EBC10304EB83039B7BA1
:101E50001A4001EBC10304EB8303DB7B1A4001EB67
:101E6000C10304EB83031B7C1A4001EBC10304EBA9
:101E700083035B7C1A4001EBC10304EB83039B7C6F
:101E80001A4001EBC10304EB8303DB7C1A4001EB36
:101E9000C10304EB83031B7D1A4001EBC10304EB78
:101EA00083035B7D1A4001EBC10304EB83039B7D3D
:101EB0001A4001EBC10304EB8303DB7D1A4001EB05
:101EC000C10304EB83031B7E1A4001EBC10304EB47
:101ED00083035B7E1A4001EBC10304EB83039B7E0B
:101EE0001A4001EBC10304EB8303DB7E1A4001EBD4
:101EF000C10304EB83031B7F1A4001EBC10304EB16
:101F000083035B7F1A4001EBC10304EB83039B7FD8
:101F10001A4001EBC10304EB8303DB7F1A4001EBA2
:101F2000C10304EB830393F820301A4001EBC10393
:101F300004EB830393F821301A4001EBC10304EB57
:101F4000830393F822301A4001EBC10304EB8303AF
:101F500093F823301A4002B1012010BDA00C0020DC
:101F600010B53B480088401C394908800846008865
:101F700028284EDB00200880364890F83D000128D4
:101F800044D135490870002034490870344800684D
:101F9000401C3349086000202E4981F83D009FED28
:101FA000310A314880ED010A084690ED100A2E48AA
:101FB00080ED020A084690F83A102B4809F0D8FF45
:101FC000B2EE000A2848A83080ED010A214890EDC1
:101FD000110A2548A83080ED020A1E4890F83A10F0
:101FE0002148A83009F0C4FF1F4890ED0C0AB1EE5B
:101FF000400A1E4880ED000A1B48A83090ED0C0AEC
:10200000B1EE400A194880ED010A02E001201349AF
:10201000087012480078012812D10F480078012872
:1020200006D102200C490870012008F0E3FF0EE001
:102030000948007802280AD1002008F0DBFF06E0FA
:102040000A48D0ED010A90ED000A09F001FA10BD2E
:102050009209002094350020910900209409002065
:10206000840900203333A340D81B00205C090020E2
:10207000304880782F4948712F480088401C2E49ED
:1020800008800846008828283DDB002008802B486F
:1020900090ED090AD0ED060AB4EE600AF1EE10FAEE
:1020A0001ED190ED0A0AD0ED070AB4EE600AF1EEF7
:1020B00010FA15D190ED0B0AD0ED080AB4EE600AC3
:1020C000F1EE10FA0CD11E480088401C1C49088013
:1020D000084600880A2810DD0020164988700CE0A8
:1020E0001749088800EBD0714910154A1180104635
:1020F000008810B901200F49887010480346183332
:102100000ECB24300EC00D4890ED0C0ADFED0D0A09
:10211000B4EEE00AF1EE10FA08D390ED0C0ADFED10
:102120000A0AB4EEE00AF1EE10FA02DD00200149DD
:1021300088707047E00900201A0B00200C26002050
:10214000160B0020CDCC4C3ECDCC4C3FF8B56420D6
:1021500013F0B9FA4FF4A176AA2010F0EBF9AB20F6
:1021600010F0E8F93F49087810F0E4F93D49487863
:1021700010F0E0F93B49887810F0DCF93949C8786B
:1021800010F0D8F937490978364A52785140354A23
:1021900092785140334AD27881EA020010F0CAF9AD
:1021A00000254FF6FF70304908801CE009E02E48FA
:1021B0000088401E2C4908800846008808B9002085
:1021C000F8BD2A480068416C2948884700F00100A2
:1021D0000028ECD025480068016C2548884729462E
:1021E0006D1C0DF80100032DE0DB002432E0BB2064
:1021F00010F0A0F9DC2010F09DF91E49085D10F0E8
:1022000099F91C4A611C505C10F094F91949095D58
:1022100081F0DC01174B621C9A5C81EA020010F02D
:1022200089F9002512E000BF10480068416C104891
:10223000884700F001000028F6D00C480068016CC7
:102240000B48884729466D1C0DF80100032DEADB79
:10225000A01C84B2B442CADBDD2010F06BF901206F
:10226000AEE70000A4A201006E0700206008000293
:1022700000100040A8A20100F0EE400AC0ED020AE2
:1022800091ED030A90ED021A20EE010A91ED041A75
:10229000D0ED011A01EE210A91ED051AD0ED001AD8
:1022A00001EE210A91ED011AD0ED041A01EE610A46
:1022B00091ED021AD0ED031A01EE610A80ED050AD4
:1022C00090ED010A80ED000A90ED020A80ED010A0E
:1022D00090ED040A80ED030A90ED050A80ED040AF2
:1022E00090ED050A704700003EB511F0BFF813F0FD
:1022F000BFFDFE48008801287DD1FD4800780128F7
:102300007AD1FC48B0F90000B0F57A7F15DCFA48C4
:10231000B0F90000B0F57A7F0FDCF848B0F90000A2
:10232000B0F57A7F09DCF648B0F90000B0F57A7FA5
:1023300003DC6420F349088013E0F348007880B997
:102340000020EA490880402105220346B6EE000A33
:10235000CDE900210290C82240F6B831EB48FEF7E3
:10236000A3FFEB480088401CE94908800846008824
:1023700004280BDBE3480088012804DBE1480088DF
:10238000401EE04908800020E1490880DD480088BF
:10239000C0F164006421484390FBF1F000F57A70CD
:1023A00000B2DC490880D7480088C0F1640064218D
:1023B000484390FBF1F000F57A7000B2D6490880EE
:1023C000D0480088C0F164006421484390FBF1F0DC
:1023D00000F57A7000B2D1490880CA480088C0F17F
:1023E00064006421484390FBF1F000F57A7000B27C
:1023F000CB49088001E0D9E106E010F01DFE09F0AC
:1024000001F808F09BFEE1E1C648007801287DD183
:10241000C548008840F2C751884278DBC34800882D
:1024200000EE100AB8EE400AF7EE000A20EE200A8D
:10243000BF48D0ED8A0ABFEE001A01EE200AD0EDA7
:10244000360AB7EE001A01EE200AD0EDDE0ABFEE22
:10245000001A01EE200ABDEEC00A10EE100A00B20A
:10246000AC490880B148008800EE100AB8EE400A76
:10247000F7EE000A20EE200AAD48D0ED8A0AB7EE4A
:10248000001A01EE200AD0ED360ABFEE001A01EE66
:10249000200AD0EDDE0ABFEE001A01EE200ABDEEE2
:1024A000C00A10EE100A00B29B4908809F480088BD
:1024B00000EE100AB8EE400AF7EE000A20EE200AFD
:1024C0009B48D0ED8A0AB7EE001A01EE200AD0ED43
:1024D000360AB7EE001A01EE200AD0EDDE0AB7EE9A
:1024E000001A01EE200ABDEEC00A10EE100A00B27A
:1024F0008A4908808D48008800EE100AB8EE400A2C
:10250000F7EE000A20EE200A894801E05FE019E0BA
:10251000D0ED8A0ABFEE001A01EE200AD0ED360A8D
:10252000BFEE001A01EE200AD0EDDE0AB7EE001A67
:1025300001EE200ABDEEC00A10EE100A00B2784982
:10254000088015E07948008800B272490880774811
:10255000008800B2704908807448008800B26F4952
:1025600008807248008800B26D49088010F064FD50
:102570006848B0F9002040F6C41140F24C4011F018
:1025800029FD644908806448B0F9002040F6C41170
:1025900040F24C4011F01EFD5F4908805F48B0F9E1
:1025A000002040F6C41140F24C4011F013FD5B498D
:1025B00008805B48B0F9002040F6C41140F24C405E
:1025C00011F008FD5649088011F07AF8FEE05548F0
:1025D00000780228FAD1012056490870564908703F
:1025E0005248008800EE100AB8EE400AF7EE000AE2
:1025F00020EE200A4E48D0ED8A0ABFEE001A01EE06
:10260000200AD0ED360AB7EE001A01EE200AD0ED0E
:10261000DE0ABFEE001A01EE200ABDEEC00A10EE7F
:10262000100A00B23B4908804048008800EE100ABA
:10263000B8EE400AF7EE000A20EE200A3C48D0ED42
:102640008A0AB7EE001A01EE200AD0ED360ABFEE74
:10265000001A01EE200AD0EDDE0ABFEE001A01EEEC
:10266000200ABDEEC00A10EE100A00B22A49088006
:102670002E48008800EE100AB8EE400AF7EE000A75
:1026800020EE200A2A48D0ED8A0AB7EE001A01EEA1
:10269000200AD0ED360AB7EE001A01EE200AD0ED7E
:1026A000DE0AB7EE001A01EE200ABDEEC00A10EEF7
:1026B000100A00B2194908801C48008800EE100A70
:1026C000B8EE400AF7EE000A20EE200A1848D0EDD6
:1026D0008A0ABFEE001A01EE200AD0ED360ABFEEDC
:1026E000001A01EE200AD0EDDE0A27E0A801002042
:1026F00087080020640A0020660A0020680A00207B
:102700006A0A0020940A002086080020680B002036
:10271000920A00205C0A00205E0A0020600A002065
:10272000620A00206C0A0020780A0020900A00202B
:10273000B0100020400B0020410B0020B7EE001A23
:1027400001EE200ABDEEC00A10EE100A00B24549A3
:1027500008804548B0F9002040F6C41140F24C40D2
:1027600011F038FC404908804048B0F9002040F69C
:10277000C41140F24C4011F02DFC3C4908803C480B
:10278000B0F9002040F6C41140F24C4011F022FC98
:10279000374908803348B0F9002040F6C41140F2B0
:1027A0004C4011F017FC2F4908800FE04FF47A706D
:1027B0002D4908802D4908802D4908802949088025
:1027C00010F03AFC08F01EFE08F0B8FC2648B0F9FC
:1027D0000000284908802548B0F9000026490880F3
:1027E0002348B0F90000254908801E48B0F90000D0
:1027F000234908801C48B0F9002040F6C41100208D
:1028000011F0E8FB184908801848B0F9002040F69C
:10281000C411002011F0DEFB144908801448B0F9FF
:10282000002040F6C411002011F0D4FB10490880AC
:102830000C48B0F9002040F6C411002011F0CAFB8A
:10284000084908800C462488A3B2094C2488A2B207
:10285000064C2488A1B2044C2488A0B20AF04EF998
:102860003EBD0000620A00205C0A00205E0A0020D3
:10287000600A0020640A0020660A0020680A00201E
:102880006A0A002010B53A4800783A4908703A4878
:1028900000783A4908703A4800783A4908703A484E
:1028A000008801280DD110F043FD38490870084612
:1028B0000078022803D100203349088001E010F09D
:1028C000BBFB2F4800782F49097888420BD030484D
:1028D00090ED000A2F4880EDFD0A29480078012874
:1028E00001D113F091FA22480078224909788842F0
:1028F0000CD01F480078022802D101202649087018
:102900001B480078012801D1234908701A48007833
:102910001A49097888420CD017480078022801D15A
:102920001D49087014480078012802D102201A4974
:10293000087019480078012811D10D480078022844
:1029400009D11648008816490880114890ED000A00
:10295000104880EDFD0A00200F49087006E00E487F
:102960000078022802D100200B49087010BD000039
:102970006C0A00206D0A00206E0A00206F0A0020F9
:10298000720A0020730A0020B40100205C080020B5
:1029900048200020B0100020740A00209C01002074
:1029A000760A002010B52DED028B0021084604F0B8
:1029B0000CFA59A200211E2004F026F95948B0F95A
:1029C0000000401C00EE100AB8EEC00A002164208E
:1029D00014F02CFE0121002004F0F7F952A201218D
:1029E000002004F011F9524800680A21B0FBF1F20E
:1029F00001FB120000EE100AB8EE400AB0EE408A69
:102A00000121282014F012FE4A4800680A21B0FB78
:102A1000F1F201FB120000EE100AB8EE400AB0EE2F
:102A2000408A0121502014F001FE0221002004F010
:102A3000CCF941A20221002004F0E6F83C484068AD
:102A40000A21B0FBF1F201FB120000EE100AB8EE11
:102A5000400AB0EE408A0221282014F0E7FD3548F4
:102A600040680A21B0FBF1F201FB120000EE100AEF
:102A7000B8EE400AB0EE408A0221502014F0D6FD94
:102A80000321002004F0A1F92DA20321002004F06D
:102A9000BBF82748D0ED020AF8EE600AB0EE600AF3
:102AA0000321282014F0C2FD224880680A21B0FBCF
:102AB000F1F201FB120000EE100AB8EE400AB0EE8F
:102AC000408A0321502014F0B1FD0421002004F0BD
:102AD0007CF91DA20421002004F096F805210020B5
:102AE00004F073F91EA20521002004F08DF80621E0
:102AF000002004F06AF920A20621002004F084F8E6
:102B00000721002004F061F920A20721002004F031
:102B10007BF8BDEC028B10BD41637469766174690A
:102B20006F6E00006C0100204944313A0000000043
:102B3000003300200C3300204944323A00000000EA
:102B40004944333A00000000506C6561736520749D
:102B5000616B652070686F746F206F660000000005
:102B6000746865204F4C454420616E6420636F6E2D
:102B7000746163740000000020205151203A333109
:102B800033383337323136350000000020205445C9
:102B90004C3A313538373137373835313500000068
:102BA00000B50346184612F076FD00BD38B5044660
:102BB0000D466B4602222946204613F0ECFB9DF899
:102BC00001009DF8001000EB012000B238BD0000AC
:102BD00070B50026002411E02146002004F08AF898
:102BE000002507E03146761C064A505C04F0C4F824
:102BF000681CC5B2802DF5DB601CC4B2082CEBDB71
:102C000070BD0000DC8F01002DE9F04105460E4645
:102C10001746002408E0042202FB045106EB84005E
:102C2000FDF7AEFD601C84B2BC42F4DB0120BDE8C0
:102C3000F0812DE9F04105460E461746002408E0D4
:102C4000042202FB045106EB8400FDF7E0FD601C4A
:102C500084B2BC42F4DBBDE8F081000010B504484A
:102C600000680122F02183690220984710BD00000E
:102C7000240800022DE9F04104460D4617461E4681
:102C80000F48006822460421436B080798470C4808
:102C900000682A460621436B4FF080409847084859
:102CA00000683A460821436BC80698470448006804
:102CB00032460A21436B48079847BDE8F08100007F
:102CC0005808000210B5044CA388A288A188A088E7
:102CD00009F014FF10BD00009A1E002000B52DED74
:102CE000028B83B04A48008840F24C4188422EDC77
:102CF0004848B0F9000015F096F841EC180B9FED2C
:102D0000460B53EC102B15F0F3F920D84448B0F9DA
:102D1000000015F088F841EC180B9FED420B53ECC6
:102D2000102B15F0E5F912D84048B0F9000015F065
:102D30007AF841EC180B9FED3E0B53EC102B15F07D
:102D40009DF804D83C480088401C3B490880304826
:102D5000008840F24C41884255DC2E48B0F9000012
:102D600015F061F841EC180B9FED2B0B53EC102B79
:102D700015F0BEF947D82A48B0F9000015F053F80D
:102D800041EC180B9FED270B53EC102B15F0B0F90D
:102D900039D82648B0F9000015F045F841EC180B79
:102DA0009FED230B53EC102B15F068F82BD822481D
:102DB0000088B0F57A7F26DD2048008818BBB7EE82
:102DC000000A1F4880ED000A00201B4908801D49A9
:102DD00008801D491A4890ED000A542011F0F0F9BE
:102DE000012010210B2200239FED180ACDE90021BC
:102DF00002904FF4FA7241F288311548FEF754FA06
:102E00000E201449088003B0BDEC028B00BD000009
:102E10009C010020A20100200000000000C06240D0
:102E2000A001002000000000008036409E0100202C
:102E300000000000008036C042010020A8010020F0
:102E400044010020B60100209C2F0020CDCC4C3E38
:102E50007C0B00206C01002009F014FE03F0B0FA96
:102E600006F0E4FF10F076FC06F048FF25499FEDE0
:102E7000260A542011F0A4F942E0FFF723FF0021B5
:102E8000084603F0A2FF0121002003F09EFF1FA2CD
:102E90000021084603F0EAFE0221002003F095FF1E
:102EA0000321002003F091FF1CA20221002003F067
:102EB000DDFE0421002003F088FF0521002003F03F
:102EC00084FF1AA20421002003F0D0FE1AA20421DC
:102ED000502003F099FE1A48808800EE900AF8EE20
:102EE000600AB0EE600A0521502014F09FFB062115
:102EF000002003F06AFF13A20621002003F084FEE5
:102F0000BBE700009C2F002000000000506C6561B2
:102F10007365204D6F76652054687200446F776E3C
:102F2000205768656E204553430000004265657078
:102F300020426565700000005468723A000000008D
:102F40009A1E00205265706F776572205768656E13
:102F5000205365742055700070B50D480068416CB1
:102F60000C488847044604F0010048B1084800684E
:102F7000016C0848884705461C2207490EF06CFA88
:102F8000034800682146C26B0248904770BD0000AC
:102F90006008000200100040C426002070B51148EF
:102FA0000068416C10488847044604F0010090B165
:102FB0000C480068016C0C488847054648220B49BC
:102FC0000EF04AFA09488079FF2804D00120074909
:102FD000088000204880034800682146C26B0248F0
:102FE000904770BD60080002001400409227002046
:102FF00070B50D480068416C0C488847044604F0E1
:10300000010048B108480068016C08488847054637
:10301000284605F08FFC00BF034800682146C26BBC
:103020000248904770BD0000600800020018004090
:1030300070B511480068416C10488847044604F098
:10304000010090B10C480068016C0C4888470546A7
:1030500048220B490EF000FA09488079FF2804D075
:103060000120074908800020488003480068214665
:10307000C26B0248904770BD60080002001C00400F
:103080002E29002010B50E480068D0F894100D4885
:10309000884704460A4800682146D0F88C20094831
:1030A000904704F0010048B105480068416E0548AA
:1030B00088470549087001200449087010BD0000C8
:1030C000280800020024004086010020850100201D
:1030D00000B52DED088B83B0002000900190029088
:1030E000CB49A1F10C0004F073FACA4890ED000A34
:1030F000DFEDC90A60EE200A9FEDC81A80EE810A52
:10310000C748D0ED000AC2480C3890ED031A10EE03
:10311000810AC44880ED000ABE4890ED010ADFED47
:10312000BE0A60EE200A9FEDBD1A80EE810ABC48FF
:10313000D0ED010AB6480C3890ED041A10EE810A61
:10314000B84880ED010AB34890ED020ADFEDB20AFB
:1031500060EE200A9FEDB11A80EE810AB048D0EDF2
:10316000020AAB480C3890ED051A10EE810AAD4802
:1031700080ED020A90ED000AF0EE408A90ED010A1F
:10318000B0EE409A90ED020AB0EE408A69EE090A6C
:1031900048EE080AB0EE600A12F0A0FC20EE280A01
:1031A000F0EE409A12F0C4FADFED9F0A20EE200AFA
:1031B0009E4880ED000A68EEA80A48EE080AB0EEC4
:1031C000600A12F08BFC20EE090AF0EE409A12F031
:1031D000AFFADFED970A20EE200A964880ED000A4C
:1031E00090ED000ADFED940A20EE200A10EE101A8E
:1031F000084615F075F941EC1B0BB0EE4B0AF0EEEA
:103200006B0A11F065FBB0EE40AAF0EE60AA51EC3B
:103210001A0B14F09BFB00EE100A884880ED000AA0
:10322000844890ED000ADFED840A20EE200A10EEBB
:10323000101A084615F054F941EC1B0BB0EE4B0A7E
:10324000F0EE6B0A11F038FAB0EE40AAF0EE60AA88
:1032500051EC1A0B14F07AFB00EE100A784880ED5E
:10326000000A724890ED000ADFED730A20EE200A92
:1032700010EE101A084615F033F941EC1B0BB0EEB6
:103280004B0AF0EE6B0A11F023FBB0EE40AAF0EE11
:1032900060AA51EC1A0B14F059FB00EE100A6948B1
:1032A00080ED000A614890ED000ADFED630A20EE30
:1032B000200A10EE101A084615F012F941EC1B0B0B
:1032C000B0EE4B0AF0EE6B0A11F0F6F9B0EE40AA40
:1032D000F0EE60AA51EC1A0B14F038FB00EE100A65
:1032E000594880ED000A08E0052012F0ECF9484842
:1032F0000C3002F037FF5549087054480078002818
:10330000F2D043480C3890ED060A5148D0ED000A3F
:1033100030EE600A8DED000A3D480C3890ED070A4A
:103320004B48D0ED010A30EE600A8DED010A3848B5
:103330000C3890ED080A4648D0ED020A30EE600ADB
:103340008DED020A9DED000A3F48D0ED000A20EE07
:10335000200ADDED020A3B4890ED001A00EE810ADA
:103360003C4880ED000A9DED000A3448D0ED000A8B
:1033700020EE200A3348D0ED000A20EE200ADDEDD1
:10338000010A2F4890ED001A00EE810ADDED020AD5
:103390002A4890ED001A60EE810A2B4890ED001A41
:1033A00000EEC10A2B4880ED010A90ED011AF0EE03
:1033B000410A90ED001AB0EE410A00F0D1FDDFEDB8
:1033C000260A20EE200A254880ED000A174890EDD5
:1033D000000ADFED190A20EE200A214880ED000ADC
:1033E000144890ED000ADFED140A20EE200A1D4873
:1033F00080ED000A194890ED000ADFED0F0A20EE7B
:10340000200A194880ED000A03B0BDEC088B00BD0E
:1034100018260020BC360020000080450AE81C4128
:10342000D409002010370020333365C2C4090020BE
:1034300033336542C009002035FA8E3CE80900208C
:10344000F4090020EC090020F8090020000A0020FF
:10345000BC320020640700201B2F6542C8090020F1
:10346000080A0020040A00200C0A002000B599B0C8
:103470000020129013901490FE4890ED000ADFEDAA
:10348000FE0A60EE200A9FEDFD1A80EE810AFC48DC
:10349000D0ED000AFB4890ED031A10EE810AFA48BD
:1034A00080ED000AF34890ED010ADFEDF30A60EECB
:1034B000200A9FEDF21A80EE810AF148D0ED010A50
:1034C000F04890ED041A10EE810AEF4880ED010AF1
:1034D000E84890ED020ADFEDE80A60EE200A9FED71
:1034E000E71A80EE810AE648D0ED020AE54890ED41
:1034F000051A10EE810AE44880ED020A90ED000AF8
:103500008DED170A90ED010A8DED160A90ED020A75
:103510008DED150A9DED160A20EE000ADDED150A67
:1035200000EEA00A8DED100A9DED100A12F0D6FAF9
:10353000DDED170A20EE200A8DED110A9DED110A2E
:1035400012F0F6F8DFEDD10A20EE200AD04880ED27
:10355000000A9DED170A20EE000ADDED150A00EEC7
:10356000A00A8DED100A9DED100A12F0B7FADDEDFC
:10357000160A20EE200A8DED110A9DED110A12F0B7
:10358000D7F8DFEDC40A20EE200AC34880ED000A18
:1035900090ED000ADFEDC10A20EE200A8DED0D0A44
:1035A0000D9814F09DFFCDE90E019DED0E0B11F06D
:1035B0008FF98DED100B9DED100B51EC100B14F0ED
:1035C000C5F900EE100AB64880ED000AB24890ED49
:1035D000000ADFEDB20A20EE200A8DED0D0A0D98EB
:1035E00014F07EFFCDE90E019DED0E0B11F064F895
:1035F0008DED100B9DED100B51EC100B14F0A6F996
:1036000000EE100AA74880ED000AA14890ED000ADC
:10361000DFEDA20A20EE200A8DED0D0A0D9814F0C0
:103620005FFFCDE90E019DED0E0B11F051F98DED0F
:10363000100B9DED100B51EC100B14F087F900EE00
:10364000100A994880ED000A9148D0ED000A9FEDDC
:10365000930A20EE800A8DED0D0A0D9814F040FFBC
:10366000CDE90E019DED0E0B11F026F88DED100B3E
:103670009DED100B51EC100B14F068F900EE100AE0
:103680008A4880ED000A7F4890ED060A8848D0ED10
:10369000000A30EE600A8DED120A7A48D0ED070A72
:1036A000834890ED010A30EEC00A8DED130A75488B
:1036B000D0ED080A7E4890ED020A30EEC00A8DED8A
:1036C000140A9DED120A7948D0ED000A20EE200A76
:1036D0009DED141A7448D0ED000A01EE200A7548D9
:1036E00080ED000A9DED120A6D48D0ED000A20EE33
:1036F000200A6D48D0ED000A20EE200ADDED130A05
:10370000684890ED001A00EE810ADDED140A644865
:1037100090ED001A60EE810A644890ED001A00EE08
:10372000C10A644880ED010A90ED010A8DED110A8D
:1037300090ED000A8DED100ADDED110A9DED100AE5
:1037400000F00EFCDFED5C0A20EE200A5B4880ED05
:10375000000A4F4890ED000ADFED500A20EE200AE3
:10376000574880ED000A4C4890ED000ADFED4B0A07
:1037700020EE200A534880ED000A5048D0ED000AA0
:103780009FED460A20EE800A4F4880ED000A4D4822
:10379000D0ED000AB0EE001A80EE810A8DED050A28
:1037A000059814F09DFECDE906019DED060B11F084
:1037B0008FF88DED0A0B4248D0ED000AB0EE001AEA
:1037C00080EE810A8DED010A019814F089FECDE9A1
:1037D00002019DED020B11F07BF88DED060B3A48CE
:1037E000D0ED000AB0EE001A80EE810A8DED010ADC
:1037F000019814F075FECDE902019DED020B11F068
:1038000067F88DED040B9DED060B53EC102B9DED31
:10381000040B51EC100B14F06DFBCDE908019DED8C
:103820000A0B53EC102B9DED080B51EC100B14F010
:1038300061FBCDE90E012348D0ED000AB0EE001A7D
:1038400080EE810A8DED050A059814F049FECDE958
:1038500006019DED060B10F02FFF8DED0A0B1848A9
:1038600090ED001AF0EE000A81EE200A8DED010ABB
:1038700001982BE0BC360020000080450AE81C417E
:10388000D40900200C26002010370020333365C2F5
:10389000C409002033336542C009002035FA8E3C4C
:1038A000E8090020F4090020EC090020F8090020B4
:1038B000BC320020640700201B2F6542C80900208D
:1038C000080A0020040A00200C0A002014F008FE58
:1038D000CDE902019DED020B10F0EEFE8DED060B21
:1038E000FE48D0ED000AB0EE001A80EE810A8DEDA0
:1038F000010A019814F0F4FDCDE902019DED020BDF
:1039000010F0DAFE8DED040B9DED060B53EC102B41
:103910009DED040B51EC100B14F0ECFACDE908010D
:103920009DED0A0B53EC102B9DED080B51EC100B89
:1039300014F0E0FACDE90C019DED0E0B53EC102BC9
:103940009DED0C0B51EC100B14F032F8CDE9100189
:103950009DED100B51EC100B13F0F8FFE0490860DF
:10396000E04890ED001AF0EE000A81EE200A8DED9D
:10397000050A059814F0B4FDCDE906019DED060B8E
:1039800010F09AFE8DED0A0BD748D0ED000AB0EE8C
:10399000001A80EE810A8DED010A019814F0A0FD55
:1039A000CDE902019DED020B10F092FF8DED060BAB
:1039B000CA48D0ED000AB0EE001A80EE810A8DED03
:1039C000010A019814F08CFDCDE902019DED020B76
:1039D00010F07EFF8DED040B9DED060B53EC102BCC
:1039E0009DED040B51EC100B14F084FACDE90801A5
:1039F0009DED0A0B53EC102B9DED080B51EC100BB9
:103A000014F078FACDE90E01B648D0ED000AB0EE18
:103A1000001A80EE810A8DED050A059814F060FD0C
:103A2000CDE906019DED060B10F052FF8DED0A0B5E
:103A3000AD48D0ED000AB0EE001A80EE810A8DED9F
:103A4000010A019814F04CFDCDE902019DED020B35
:103A500010F032FE8DED060BA04890ED001AF0EE4E
:103A6000000A81EE200A8DED010A019814F038FD5C
:103A7000CDE902019DED020B10F01EFE8DED040B51
:103A80009DED060B53EC102B9DED040B51EC100B30
:103A900014F030FACDE908019DED0A0B53EC102B20
:103AA0009DED080B51EC100B14F024FACDE90C013C
:103AB0009DED0E0B53EC102B9DED0C0B51EC100BF0
:103AC00014F024FCCDE910019DED100B51EC100B0E
:103AD00013F03CFF854908608248D0ED000AB0EE43
:103AE000001A80EE810A8DED050A059814F0F8FCA5
:103AF000CDE906019DED060B10F0EAFE8DED0A0BF7
:103B00007948D0ED000AB0EE001A80EE810A8DED02
:103B1000010A019814F0E4FCCDE902019DED020BCD
:103B200010F0CAFD8DED060B6C48D0ED000AB0EE2A
:103B3000001A80EE810A8DED010A019814F0D0FC84
:103B4000CDE902019DED020B10F0C2FE8DED040BDC
:103B50009DED060B53EC102B9DED040B51EC100B5F
:103B600014F0C8F9CDE908019DED0A0B53EC102BB8
:103B70009DED080B51EC100B14F0BCF9CDE90E01D2
:103B80005848D0ED000AB0EE001A80EE810A8DEDA3
:103B9000050A059814F0A4FCCDE906019DED060B7D
:103BA00010F08AFD8DED0A0B4F4890ED001AF0EEF3
:103BB000000A81EE200A8DED010A019814F090FCB4
:103BC000CDE902019DED020B10F082FE8DED060B9A
:103BD0004248D0ED000AB0EE001A80EE810A8DED69
:103BE000010A019814F07CFCCDE902019DED020B65
:103BF00010F062FD8DED040B9DED060B53EC102BC8
:103C00009DED040B51EC100B14F074F9CDE9080193
:103C10009DED0A0B53EC102B9DED080B51EC100B96
:103C200014F068F9CDE90C019DED0E0B53EC102B4F
:103C30009DED0C0B51EC100B13F0BAFECDE9100109
:103C40009DED100B51EC100B13F080FE284908601D
:103C50002448D0ED000AB0EE001A80EE810A8DED06
:103C6000050A059814F03CFCCDE906019DED060B14
:103C700010F02EFE8DED0A0B1B48D0ED000AB0EEC1
:103C8000001A80EE810A8DED010A019814F028FCDB
:103C9000CDE902019DED020B10F01AFE8DED060B31
:103CA0000E48D0ED000AB0EE001A80EE810A8DEDCC
:103CB000010A019814F014FCCDE902019DED020BFC
:103CC00010F0FAFC8DED040B9DED060B53EC102B60
:103CD0009DED040B51EC100B0CE000000C0A0020D1
:103CE000280A0020040A0020080A00202C0A0020CC
:103CF000300A002014F0FEF8CDE908019DED0A0B12
:103D000053EC102B9DED080B51EC100B14F0F2F856
:103D1000CDE90E013448D0ED000AB0EE001A80EE75
:103D2000810A8DED050A059814F0DAFBCDE906014C
:103D30009DED060B10F0C0FC8DED0A0B2B48D0ED6D
:103D4000000AB0EE001A80EE810A8DED010A01989A
:103D500014F0C6FBCDE902019DED020B10F0ACFCA6
:103D60008DED060B224890ED001AF0EE000A81EE70
:103D7000200A8DED010A019814F0B2FBCDE9020191
:103D80009DED020B10F0A4FD8DED040B9DED060BD7
:103D900053EC102B9DED040B51EC100B14F0AAF812
:103DA000CDE908019DED0A0B53EC102B9DED080B9E
:103DB00051EC100B14F09EF8CDE90C019DED0E0BAB
:103DC00053EC102B9DED0C0B51EC100B14F09EFAE4
:103DD000CDE910019DED100B51EC100B13F0B6FD69
:103DE0000449086019B000BD040A0020080A002038
:103DF0000C0A0020340A00200348006840F04040CC
:103E0000014908607047000034EF00E00348006893
:103E100040F47000014908607047000088ED00E040
:103E200000B5B0EE404AB7EE000AF0EE404AF0EEC0
:103E3000442AF5EEC02AF1EE10FA07D2B1EE620A7A
:103E4000F0EE402AB1EE640AF0EE404AB6EE000A07
:103E5000F4EEC02AF1EE10FA1FDD0122B7EE000ADF
:103E6000F4EEC02AF1EE10FA04DDDFED343AB0EEE4
:103E7000630A00BDB7EE000A30EE620AF6EE000AF1
:103E800020EE203AB0EE430A00F016FCF8EE000AED
:103E900020EE200AF0EE402A17E000229FED280ACB
:103EA000F4EEC02AF1EE10FA0DD2F0EE623AF5EE21
:103EB000C04AF1EE10FA03D2B1EE630AF0EE403AD6
:103EC000B0EE630AD5E722EEA23A9FED1E0ADFEDBF
:103ED0001E0A00EE830ADFED1D0A40EE030A20EE03
:103EE000835A9FED1B0A73EE000A9FED1A0A00EE3B
:103EF000830ADFED190AF0EE605A40EE035A85EEB0
:103F0000250AF0EE403AB0EE620A03EEA20AF0EEA5
:103F1000403A012A05D19FED110A33EE800AF0EEF6
:103F2000403AF5EEC04AF1EE10FA03D2B1EE630A60
:103F3000F0EE403AB0EE630A9BE70000000000009C
:103F4000F304B539E0F939403F3118BF201B30C0C8
:103F5000855725C1F7EAC641581484C1DB0FC93F14
:103F6000F0EE402AB0EE603AB5EEC03AF1EE10FA4B
:103F700019D1F5EEC02AF1EE10FA02D19FED590ADF
:103F800070479FED590AF5EEC02AF1EE10FA00DDF8
:103F9000F6E7F5EEC02AF1EE10FA04D2F1EE403A5F
:103FA000B0EE630AECE70020F0EE621AB0EE432AAE
:103FB000F5EEC01AF1EE10FA03D2F1EE613AF0EE2E
:103FC000631AB5EEC02AF1EE10FA03D2F1EE423ACE
:103FD000B0EE632AF4EEC21AF1EE10FA06DDF0EE4E
:103FE000420AB0EE612AF0EE601A0220C1EE823A77
:103FF000F0EE630ADFED3D3AF4EEE30AF1EE10FA7B
:1040000014DD9FED3B4AF7EE003A50EE843A73EE32
:10401000A03AF0EE631ADFED373A70EEA33AB0EE55
:10402000632AC1EE823AF0EE630A401CB0EE601AD9
:10403000B5EEC01AF1EE10FA03D2F1EE413AB0EE4D
:10404000631ADFED2D3AB4EEE31AF1EE10FA02D264
:10405000B0EE600A21E060EEA03AB0EE631ADFED48
:10406000273A9FED274A44EE013A63EE813AF0EE9B
:10407000631ADFED243A31EE234ADFED233A44EEB2
:10408000013AB0EE632AC1EE823AB0EE630AF0EE76
:10409000603A40EE203AB0EE630A012803DDF1EE0B
:1040A000403AB0EE630A194901EB8001D1ED003AC4
:1040B00073EE803AB0EE630AB5EEC03AF1EE10FA54
:1040C00005D2DFED133A73EEC03AB0EE630AF5EEB7
:1040D000C02AF1EE10FA03D2F1EE403AB0EE630AD4
:1040E00000BF4DE700000000DB0FC93FA330893E51
:1040F000AF673B3FD7B3DD3FF304B539A854B8BF32
:10410000AE5338BF3C1298407E3F8A4094A20100D3
:10411000DB0F4940B0EE402A9FED1F4AF5EE003A12
:1041200042EE043AF0EE630AFDEEE03A13EE901A26
:10413000F5EEC00AF1EE10FA00D2491E03EE901A15
:10414000F8EEE33A70EEE33AF0EE630ADFED133A8D
:1041500060EEA31AFCEEE13A13EE902AC2F30800D7
:1041600003EE900AF8EE633A31EEE31A0C4A02EBE2
:104170008002D2ED002A0A4B421C03EB820292ED30
:10418000003AF7EE003A73EEC13A63EEA23AB0EEAF
:10419000630A01EE030A704783F9223E00000044DF
:1041A000249A01002DE9F04F2DED028B86B0B0EE80
:1041B000404AF0EE602A6C466D46FE4EFE48019085
:1041C0004FF0000BB5EEC04AF1EE10FA16D1F5EE45
:1041D000C02AF1EE10FA06D1B7EE000A06B0BDEC27
:1041E000028BBDE8F08FF5EEC02AF1EE10FA02DD89
:1041F0009FEDF20AF2E79FEDF20AEFE7B5EEC04A53
:10420000F1EE10FA15D2BDEEE20A10EE107A00EED1
:10421000107AB8EEC00AB4EE620AF1EE10FA02D0DB
:104220009FEDE60ADAE7B1EE440AB0EE404A07F045
:10423000010B8DED004A20684FEAE058A8F17E0896
:10424000206820F0FF4040F07C50206095ED003A5F
:10425000012296ED090AB4EEC30AF1EE10FA00DB72
:104260000922101D06EB800090ED000AB4EEC30A8F
:10427000F1EE10FA00DB121D901C06EB800090EDB1
:10428000000AB4EEC30AF1EE10FA00DB921C521CD5
:1042900006EB820090ED000A33EE400AB0EE407A61
:1042A0004FEA620C019800EB8C0090ED000A37EEAB
:1042B000400AB0EE407A06EB820090ED000A70EE04
:1042C000037A521E87EE270A8DED050A9DED050A39
:1042D00030EE000A8DED050A9DED050A60EE006ADC
:1042E0009FEDB80A26EE800AF0EE403A9FEDB60A3E
:1042F00033EE800AF0EE403A23EEA60AF0EE403AA2
:104300009DED050A23EE800AF0EE403ADFEDAF0A9C
:10431000B0EE630A00EEA30AF0EE403A9DED050A06
:10432000DFEDAA0A20EE200AB0EE406A33EE860ADC
:10433000B0EE406A9DED050A36EE000AB0EE406A26
:10434000C2EB081000EE100AB8EEC00AF0EE405AB8
:104350009FED9F0A25EE800AF0EE405AF3EE000A28
:1043600062EEA00AB0EE600A04A804F0A1FA9DED86
:10437000040ADFED970A20EE200A8DED040A9DED78
:10438000040A32EEC08A25EE880A8DED020A26EE76
:10439000220AB0EE405A9DED020A35EE000A8DED7C
:1043A000020ADDED020AB3EE001A60EE810AB0EEF9
:1043B000600A03A804F07CFA9DED030ADFED840A8D
:1043C00020EE200A8DED030A9DED020ADDED030AC1
:1043D00030EE600AB0EE402A9DED040A25EE800A18
:1043E0008DED020A9DED020ADDED030A30EE200A92
:1043F0008DED020ADDED020AB3EE001A60EE810ACD
:10440000B0EE600A03A804F053FA9DED030ADFED55
:10441000700A20EE200A8DED030A9DED020ADDED03
:10442000030A30EE600AB0EE405A32EE050AB0EEF2
:10443000402AF3EE000A62EE200AB0EE600A02A8FB
:1044400004F036FA9DED020ADFED610A20EE200A43
:104450008DED020A9DED030ADDED020A30EE200A21
:10446000B0EE405AB3EE000A25EE000AB0EE405A14
:10447000BDEEC50A10EE101A9DED020A32EE400A9A
:10448000B0EE402A00EE101AB8EEC00ADFED510A75
:10449000B4EEE00AF1EE10FA0BDDDFED494ABBF1B4
:1044A000010F03D1B1EE640AF0EE404AB0EE640AA7
:1044B00094E6B5EEC02AF1EE10FA06DD9FED440A4F
:1044C00032EE400AB0EE402A491C00EE101AB8EE57
:1044D000C00ADFED410AB4EEE00AF1EE10FA02D2B2
:1044E0009FED360A7AE6002901DA002300E0012375
:1044F00008464FEAE17C01EB1C7C4FEA2C194B4447
:10450000C1EB031A9FED350A22EE000A8DED050A74
:104510009DED050ADFED320A30EE200A8DED050A29
:104520009DED050A20EE020A8DED050A9DED050AB6
:10453000DFED2C0A30EE200A8DED050A9DED050A0F
:1045400020EE020A8DED050A9DED050ADFED260A33
:1045500030EE200A8DED050A9DED050A20EE020AD7
:104560008DED050A9DED050ADFED200A30EE200AEB
:104570008DED050A9DED050A20EE020A8DED050A76
:104580000AF1010006EB800090ED000ADDED050A5E
:1045900020EE200A8DED050A0AF1010006EB8000ED
:1045A00090ED000ADDED050A30EE200A8DED050ADA
:1045B00005AD1DE028A2010070A20100000000006E
:1045C000FFFF7F7F00E84C3CAAAAAA3DEDA8E23E8F
:1045D0000000803D00C0FF4400E0FBC41815AB3A6A
:1045E0004B8D1D3C3758633DF0FD753E1872313FD1
:1045F0002C462068C0F3C759A9F17F094B447F338B
:10460000DBB2206820F0FF402060206840EAC35001
:104610002060D5ED004ABBF1000F03D0B1EE640A73
:10462000F0EE404AB0EE640AD8E50000F0EE400A31
:10463000DFED1E3A60EEA33AF0EE631AFDEEE13ACA
:1046400013EE901AF5EEC00AF1EE10FA00D2491EF0
:1046500003EE901AF8EEE33A71EEE33AF0EE631AE5
:10466000DFED133A21EEA32AFCEEC23A13EE902AB4
:10467000C2F3080003EE900AF8EE633A32EE631AD2
:104680000C4A02EB8002D2ED002A0A4B421C03EBDB
:10469000820292ED003AF7EE003A73EEC13A63EE11
:1046A000A23AB0EE630A01EE030A704783F9223E94
:1046B00000000044249A010000B5B0EE402AB0EE9C
:1046C000420A00F003F820EE020A00BD08B5F0EE41
:1046D000400ACDED000A0C490098A1EB5000009073
:1046E0009FED0A0A20EE800A9DED001A20EE011AC5
:1046F000DDED001A9FED060A01EE610A9DED001A3C
:1047000020EE010A08BD000012141F5F12D3363FCD
:10471000FF51D83FF0EE401A9FED570AF4EEC01A51
:10472000F1EE10FA06DC9FED550AF4EEC01AF1EE38
:1047300010FA02D29FED520A7047BDEEE10AB8EEC0
:10474000C04A71EEC44AB6EE001AF5EEC01AF1EE98
:1047500010FA03D8B1EE410AB0EE401A9FED495A63
:10476000B0EE410A01EE850ABDEEC00A10EE100A55
:1047700000EE100AF8EEC03A9FED435AB0EE440A3C
:1047800003EEC50AF0EE400A30EEA40AF0EE400A4D
:104790009FED3E5AB0EE600A03EEC50AF0EE400A05
:1047A0009FED3B5AB0EE600A03EEC50AF0EE400AF8
:1047B000F5EEC00AF1EE10FA04D2B1EE600AB0EEE6
:1047C000401A01E0B0EE601A9FED320AB4EEC01A52
:1047D000F1EE10FA0CD200F0010121B1BFEE000A97
:1047E000C0EE202A01E0F0EE602AB0EE620AA3E7F4
:1047F00020EEA00AB0EE401A9FED270A21EE000A33
:10480000B0EE402A9FED250A32EE000AB0EE402AB3
:1048100022EE010AB0EE402A22EE200AB0EE402A33
:1048200032EE200AB0EE402A9FED1D0A21EE000A6A
:10483000B0EE403A9FED1B0A33EE000AB0EE403A6C
:1048400023EE010AB0EE403AB7EE000A33EE000A5A
:10485000B0EE403A00F0010139B1F0EE422AB1EE7B
:10486000430AB0EE402AB0EE623A82EE030AF0EE5E
:10487000402AB0EE620A5FE7192C0E46192C0EC6CC
:104880000000000083F9223F0000C93F0000FE390C
:10489000D3BB2BB5F304B53935EC8C3A7811E4BDB4
:1048A000A2DA823C08AFE3BE70B52DED028B044660
:1048B000B0EE408AF0EE608A0025C54800F07CFF2B
:1048C00040F2DC50C3490880C14890ED020ADFED98
:1048D000C20A20EE200ADFEDC10AB4EEE00AF1EED2
:1048E00010FA00DB0125BE480078A04200D0012567
:1048F000BB48047024B1012C7DD0022C7CD1EDE0AA
:10490000B84890EDFD0AB5EEC00AF1EE10FA01D0FC
:10491000012D05D1B44890ED000AB24880EDFD0AA2
:10492000B14890ED000AAF4880EDFE0A00F57C70BA
:1049300006F0CEFFAD4890ED0C0AA83080ED010ADC
:104940000020AB490870A84890ED030AA748A8309A
:1049500080ED020A07F0B8F8A5480078012810D1C8
:10496000A248A830D0ED0C0AB0EE600A9FEDA11A63
:10497000DFEDA10A10F05AFE9C48A83080ED0C0A29
:1049800013E09B48007802280FD19848A830D0ED5A
:104990000C0AB0EE600A9FED991ADFED990A10F04B
:1049A00045FE9248A83080ED0C0A9048A83090ED62
:1049B0000C0A00F5527080ED010A924890ED000A51
:1049C000914880ED020A06F083FF8F4890ED010ABE
:1049D0009FED8E1AC0EE010A90ED0C0A90ED071AB9
:1049E000DFED8B1A31EE211ADFED8A1A31EE611AF2
:1049F00001EE200A01E003E0D5E080ED0C0AD2E0F0
:104A0000784880EDFD8A784890ED000A754880ED81
:104A1000FE0A764806F05CFF744890ED0C0AA83058
:104A200080ED010A0020724908706F4890ED030A7A
:104A30006E48A83080ED020A07F046F86C4800780E
:104A4000012810D16948A830D0ED0C0AB0EE600AF8
:104A50009FED681ADFED680A10F0E8FD6348A830A2
:104A600080ED0C0A13E06248007802280FD15F48FD
:104A7000A830D0ED0C0AB0EE600A9FED601ADFEDB1
:104A8000600A10F0D3FD5948A83080ED0C0A574851
:104A9000A83090ED0C0A5C4880ED010A594890ED71
:104AA000000A594880ED020A06F012FF564890EDC0
:104AB000010A9FED561AC0EE010A90ED0C0A90ED26
:104AC000071ADFED531A31EE211ADFED521A31EEDB
:104AD000611A01EE200A80ED0C0A64E09FED4E0A97
:104AE000404880EDFD0A00F59360C0ED018A00208A
:104AF0003F4908703C4890ED030A3C48A83080EDDF
:104B0000020A06F0E1FF3A480078012810D1374840
:104B1000A830D0ED0C0AB0EE600A9FED361ADFED3A
:104B2000360A10F083FD3148A83080ED0C0A13E0FE
:104B30002F48007802280FD12C48A830D0ED0C0A5D
:104B4000B0EE600A9FED2D1ADFED2D0A10F06EFD1C
:104B50002648A83080ED0C0A2448A83090ED0C0AB5
:104B6000294880ED010A274890ED000A264880ED8B
:104B7000020A06F0ADFE244890ED010A9FED231ACB
:104B8000C0EE010A90ED0C0A90ED071ADFED201A35
:104B900031EE211ADFED1F1A31EE611A01EE200A03
:104BA00080ED0C0A00BF00BF1748D0ED0C0A094881
:104BB000008800EE100AB8EE400A30EE800ABDEE22
:104BC000C00A10EE100A15490880BDEC028B70BDBA
:104BD000F8330020760A00206F12833ACCCCCC3C0C
:104BE00060080020B010002048200020A014002001
:104BF000610800200000C8430000C8C300007A43D9
:104C000000007AC3A0250020901800200000754401
:104C10000080BB4400C0874400000000780A0020E8
:104C200010B53D480088401C3B4908800846008874
:104C3000282848DB00200880384890F83D000128EB
:104C40003ED137490870002036490870334981F851
:104C50003D009FED350A354880ED010A084690ED8C
:104C6000100A324880ED020A084690F83A102F48A0
:104C700007F07EF92D4890ED0C0AB1EE400A2C4861
:104C800080ED000A9FED2B0A2848A83080ED010A2C
:104C9000224890ED0D0A2548A83080ED020A1F48F1
:104CA00090F83A102148A83007F062F91F48A83060
:104CB00090ED0C0AB1EE400A1D4880ED010A02E0B9
:104CC0000120184908701748007801281BD11448A2
:104CD000007801280FD10220114908709FED120AB7
:104CE000134880ED000A9FED100A80ED010A0120B3
:104CF00006F080F90EE00A48007802280AD1002068
:104D000006F078F906E00A48D0ED010A90ED000AB5
:104D100006F09EFB10BD00009A090020E835002037
:104D2000990900209C09002000000000D81B0020E9
:104D30005C0900200000C84270B505460E461446C6
:104D400034B107480068314642682846904705E07C
:104D500003480068314682682846904770BD0000CD
:104D600024080002034B53F82020938B8B4393833A
:104D700070470000F485010010B50246054850F860
:104D80002240208800EA01030BB1012010BD002061
:104D9000FCE70000F485010010B50346054C54F80B
:104DA00023001AB9048B8C43048302E0048B0C4368
:104DB000048310BDF48501000246084B53F822001D
:104DC00043898B43438183898B43838183888B43CE
:104DD0008380C3888B43C38070470000F485010043
:104DE0000246094B53F8220043898B434381838950
:104DF0008B43838183888B438380C3880B43C38029
:104E000043888B4343807047F48501000246094B79
:104E100053F8220043898B43438183898B438381E9
:104E200083888B438380C3880B43C38043880B43B1
:104E300043807047F48501000246064B53F8220078
:104E400043898B43438183898B43838183880B43CD
:104E500083807047F4850100034B53F8202053886A
:104E60000B43538070470000F4850100034B53F857
:104E7000202053888B43538070470000F485010045
:104E80005D48007B01287DD15B4890ED050A80EDEF
:104E9000060A90ED040A80ED050A90ED020AB8EECC
:104EA000400ADFED560A80EE201A80ED041A90EDDC
:104EB000070A80ED090A90ED040AD0ED050A30EEEC
:104EC000600ADFED4F0A80EE201A80ED071A90EDA0
:104ED000070AD0ED090A30EE600ADFED490A80EEDC
:104EE000201A80ED081A90ED040ADFED460AB4EEB0
:104EF000E00AF1EE10FA21DC90ED050AD0ED040A8B
:104F000030EE600AB5EEC00AF1EE10FA06DD90ED63
:104F1000050AD0ED040A30EE600A08E0364890ED4C
:104F2000050AD0ED040A30EE600AB1EE400AF3EE55
:104F30000E0AB4EEE00AF1EE10FA06DD2E4890ED0E
:104F40000A0A314880ED000A0AE02B4890ED040A75
:104F50002D4880ED000A90ED000A274880ED0A0AEE
:104F6000254890ED070A294880ED000A224890ED77
:104F7000080A274880ED000A26480088401C254979
:104F8000088000E002E000201B49087321480088E7
:104F9000022806DB0120204981F8660000201D4917
:104FA00008801E48007B01280DD11C4890ED020AA4
:104FB000B8EE400ADFED110A80EE201A80ED041AE7
:104FC000002016490873104890ED000ADFED140A1E
:104FD000B4EEE00AF1EE10FA0AD890ED000AB5EE50
:104FE000C00AF1EE10FA03DD01200E49087102E05B
:104FF00000200C4908717047383300200000C84277
:10500000CDCC4C3D00003443740600207C060020CB
:1050100084060020360800200C260020643300207F
:105020000000BE43E009002010B580210520FFF7F5
:10503000EDFE012280210520FFF7AEFE8021052034
:10504000FFF790FE10BD000010B51C480078A0B915
:105050001B480EF07BFB3021B0FBF1F119480068D2
:10506000401C42F210725043401A17490860FFF783
:10507000DBFF0120114908701FE01048007801286B
:105080001BD10F480EF062FB3021B0FBF1F10D484F
:105090000068401C42F210725043401A0A494860AE
:1050A000084640680968401A07498860012008736B
:1050B00000F02EF800200149087010BD34080020CF
:1050C00020C00040240800203833002010B50F48CD
:1050D0000068802102690520904700228021052078
:1050E000FFF75AFE094800688021426B052090476F
:1050F000064800688021826A0520904703480830EE
:10510000006881693720884710BD0000240800022C
:1051100010B580210520FFF763FE002280210520C5
:10512000FFF73AFE80210520FFF71CFE10BD10B5E9
:1051300001210320FFF76AFE012211460320FFF739
:105140002BFE01210320FFF70DFE10BD10B51E48F8
:105150000078B8B91D4800F02FFB1D480EF0F6FA94
:105160003021B0FBF1F11B480068401C42F2107284
:105170005043401A18490860FFF7D9FF012012492F
:1051800008701FE01048007801281BD110480EF06D
:10519000DDFA3021B0FBF1F10E480068401C42F20C
:1051A00010725043401A0C4948600846406809682C
:1051B000401A094988600120087300F031F8002086
:1051C0000149087010BD0000350800209033002010
:1051D00020C00040240800206433002010B50F4890
:1051E0000068012102690320904700220121032069
:1051F000FFF7D2FD094800680121426B0320904768
:10520000064800680121826A03209047034808305D
:10521000006881693520884710BD0000240800021D
:1052200010B501210320FFF7DBFD0022012103203F
:10523000FFF7B2FD01210320FFF794FD10BD10B56B
:10524000FFF744FFFFF7CAFF10BD000010B50A4882
:105250000078401C0849087008460078082804DBDC
:10526000FDF710FB0020044908700EF065FBFDF708
:105270003BF80DF02FFF10BD980A002010B52DED62
:10528000028B3B480088B0F5FA7F04DC3848008880
:10529000401C3749088036480088B0F5FA7F08D1AD
:1052A000344890ED0F0A80ED100A0120BDEC028B0E
:1052B00010BD2F48008840F2F511884254D12D4886
:1052C00090ED0F0AD0ED100A80EE201AB7EE000A1A
:1052D00021EE000AB0EE408ADFED270AB0EE480A60
:1052E000FEF760FFF7EE000A30EEC00ADFED230A9A
:1052F00020EE200A1F4880ED110A90ED110A10EEF1
:10530000101A08460FF0CFF920B11A4890ED120A92
:1053100080ED110A1A480078012823D1154890ED34
:10532000110AD0ED120A30EE600AF6EE000A80EEA5
:10533000201A80ED131A90ED110A80ED120A90EDFB
:10534000130AD0ED140A30EE600AF6EE000A80EE81
:10535000201A80ED151A90ED130A80ED140A002032
:10536000074908700120A1E700BF00209EE7000068
:10537000580A00200C260020B1DC423ED048874A63
:105380003C02002010B5114890ED000ADFED100A34
:1053900020EE200A9FED0F1AC0EE010A0E48008889
:1053A00000EE100AB8EE400A20EE800ADFED0B0A8C
:1053B00020EE200ADFED0A0A80EE201A094880ED6F
:1053C000001A09490968086F804710BD9806002037
:1053D00000D8D64700401C46A00600203333534077
:1053E000000080469C0600200408000210B5DB483F
:1053F0000DF06AFF0DF086F9D9480DF065FFD84829
:1054000090ED010AD548D0ED010A30EE600AD5488A
:1054100080ED000A04F044FDD348D0ED024AB0EE1E
:10542000644AD0ED014AF0EE643AD0ED004AB0EEA5
:10543000643ACE48D0ED024AF0EE642AD0ED014A3B
:10544000B0EE642AD0ED004AF0EE641AC848D0ED00
:10545000024AB0EE641AD0ED014AF0EE640AD0EDD3
:10546000004AB0EE640AC348D0ED004A02F078F971
:10547000C14890ED001AF8EE001A21EE211AD0ED85
:10548000001A21EE211ABD48D0ED001AB0EE002A14
:1054900061EE821A90ED002A01EEC21AF7EE001AB0
:1054A00031EE211AF0EE410A90ED001AF0EE001AEA
:1054B00021EE211AB248D0ED001A21EE211AB1488E
:1054C000D0ED001AB0EE002A61EE821AAA4890EDE3
:1054D000002A01EE821AB0EE410AFEF741FDDFED2F
:1054E000AA0A20EE200AA94880ED000AA548D0EDBE
:1054F000000AB0EE001A60EE810AA04890ED001A92
:1055000060EE810A9C4890ED001AF0EE001A21EE40
:10551000211A9B48D0ED001A41EE610AB0EE600AF4
:10552000FEF77EFCDFED980A20EE200A984880ED19
:10553000000A934890ED001AF8EE001A21EE211AA5
:10554000D0ED001A21EE211A8C48D0ED001AB0EEF1
:10555000002A61EE821A90ED002A01EEC21AF7EEDF
:10556000001A31EE211AF0EE410A834890ED001A3C
:10557000F0EE001A21EE211A8048D0ED001A21EE3B
:10558000211A8048D0ED001AB0EE002A61EE821A8E
:105590007B4890ED002A01EE821AB0EE410AFEF738
:1055A000DFFCDFED790A20EE200A7A4880ED000A60
:1055B0006F4890ED000ADFED780A20EE200A774868
:1055C00080ED000A6A4890ED010ADFED730A20EED3
:1055D000200A734880ED000A654890ED020ADFED6D
:1055E0006E0A20EE200A6F4880ED000AD0ED000A16
:1055F00090ED001A60EE810A684890ED001AD0ED37
:10560000001A41EE210A664890ED001AD0ED001A0A
:1056100041EE210AB0EE600AFFF74EF8554880EDE2
:10562000000A10F04BF9604890ED000A5B48D0ED9D
:10563000000A9FED5E1A00EE810A5B4880ED000AC9
:1056400090ED010A5648D0ED000A9FED581A00EE81
:10565000810A554880ED010A90ED020A5148D0EDCB
:10566000000A9FED521A00EE810A4F4880ED020AAF
:1056700090ED000AB5EEC00AF1EE10FA07D290EDF7
:10568000000ADFED4B0A30EE200A80ED000A4648A2
:1056900090ED000ADFED460AB4EEE00AF1EE10FAF2
:1056A00007DD90ED000ADFED420A30EE600A80ED82
:1056B000000A3D4890ED010AB5EEC00AF1EE10FA7D
:1056C00007D290ED010ADFED3A0A30EE200A80EDB4
:1056D000010A354890ED010ADFED350AB4EEE00A23
:1056E000F1EE10FA07DD90ED010ADFED310A30EE40
:1056F000600A80ED010A2C4890ED020AB5EEC00A5E
:10570000F1EE10FA07D290ED020ADFED290A30EE31
:10571000200A80ED020A244890ED020ADFED240AF7
:10572000B4EEE00AF1EE10FA07DD90ED020ADFEDCB
:10573000200A30EE600A80ED020A0CF057F81D488E
:105740000078401C1B49087008460078022803DBDB
:10575000002008700DF098FA10BD000030390020CC
:1057600040390020500A00206437002058370020BC
:105770004C370020D00900202C0A0020300A0020DD
:10578000340A0020280A0020E02E6542A8090020E3
:10579000AC090020B009002047237A3CB80900205A
:1057A000BC090020B4090020B03600200AD7233BF2
:1057B0000000B4435B0A002010B5044694ED010AD2
:1057C00084ED000A13480DF0C1FF00EE100AF8EE58
:1057D000400A9FED111A80EE810A10480068401CB3
:1057E00000EE900AF8EE600AB2EE041A11EE200AFA
:1057F00084ED010A94ED010AD4ED000A30EE600A4E
:1058000084ED020A94ED020ABCEEC00A10EE100A02
:10581000A08110BD20C0004000803B47240800202C
:10582000F0EE400AC0ED000A90ED002AB0EE421AF8
:1058300090ED002AF0EE421A90ED002AB0EE420AF6
:10584000022131E000EB810292ED002AB4EEC12A80
:10585000F1EE10FA06DD00EB810292ED002AB0EEC7
:10586000421A0EE000EB810292ED002AB4EEE12A2A
:10587000F1EE10FA05D200EB810292ED002AF0EE73
:10588000421A00EB810292ED002A32EE002AB0EEBD
:10589000420A4A1E00EB820292ED002A00EB8102CE
:1058A00082ED002A4A1ED1B20029CBD1012130EE6F
:1058B000412A32EE612AB0EE420A02EE101AB8EE28
:1058C000422AC0EE022AB0EE620A70473EB5044694
:1058D00094ED000A6548D0ED000A30EE600ADFED75
:1058E000640A20EE200AF1EE040AB4EEE00AF1EEBA
:1058F00010FA44D894ED010AD0ED010A30EE600AA6
:10590000DFED5B0A20EE200AF1EE040AB4EEE00AB5
:10591000F1EE10FA33D894ED020AD0ED020A30EE1F
:10592000600ADFED530A20EE200AF1EE040AB4EE1D
:10593000E00AF1EE10FA22D80DF0A8FC01281ED1E1
:105940004C4890ED000AD4ED000A30EE200A80EDBC
:10595000000A90ED010AD4ED010A30EE200A80ED34
:10596000010A90ED020AD4ED020A30EE200A80ED21
:10597000020A41480088401C3F4908800FE09FED23
:105980003F0A3C4880ED000A9FED3C0A80ED010A89
:105990009FED3A0A80ED020A00203749088094ED15
:1059A000000A324880ED000A94ED010A80ED010AF8
:1059B00094ED020A80ED020A2F480088C82853DBC4
:1059C00001202F4908602B48D0ED000A2A480088A2
:1059D00000EE100AB8EE400A80EE801A294880EDE9
:1059E000001A2448D0ED010A2348008800EE100A6E
:1059F000B8EE400A80EE801A224880ED011A1D4858
:105A0000D0ED020A1C48008800EE100AB8EE400AE9
:105A100080EE801A1B4880ED021AFDF727FD00205A
:105A200010210B2203469FED180ACDE900210290B8
:105A300064224FF4FA611548FBF736FC0120144943
:105A400048721048D0ED021AB0EE611AD0ED011A7A
:105A5000F0EE610AD0ED001AB0EE610A0D495B204C
:105A60000EF0C5FB01203EBD0020FCE7540D0020D8
:105A700047237A3C480D00206A0100200000000006
:105A80003800002044100020CDCC4C3E7C0B002080
:105A9000663F00209C2F002010B5144890ED0C0AA2
:105AA00080ED2B0A90ED600A80ED7F0A104890EDA2
:105AB000000A0E4880ED2C0A0E4890ED000A0B48B3
:105AC00080ED800AA83006F011F90B4806F00EF9B7
:105AD0000A4890ED000A054880EDD40A00F552709E
